:020000041000EA
:1000000000B5324B212058609868022188439860DF
:10001000D860186158612E4B002199600221596106
:100020000121F02299502B49196001219960352056
:1000300000F044F80222904214D00621196600F024
:1000400034F8196E01211966002018661A6600F04E
:100050002CF8196E196E196E052000F02FF8012189
:100060000842F9D1002199601B49196000215960AB
:100070001A491B48016001219960EB211966A021F2
:10008000196600F012F800219960164914480160C1
:100090000121996001BC002800D000471248134993
:1000A000086003C880F30888084703B5996A0420EC
:1000B0000142FBD001200142F8D103BD02B5186610
:1000C0001866FFF7F2FF186E186E02BD00000240BE
:1000D000000000180000070000035F00212200005C
:1000E000F4000018222000A00001001008ED00E03C
:1000F00000000000000000000000000074B24E7A12
:1001000000200420F7010010C3010010C5010010F9
:10011000C1010010C1010010C1010010C101001097
:10012000C1010010C1010010C1010010C701001081
:10013000C1010010C1010010C9010010CB01001065
:10014000CD010010CD010010CD010010CD01001037
:10015000CD010010CD010010CD010010CD01001027
:10016000CD010010CD010010CD010010CD01001017
:10017000CD010010CD010010CD010010CD01001007
:10018000CD010010CD010010CD010010CD010010F7
:10019000CD010010CD010010CD010010CD010010E7
:1001A000CD010010CD010010CD010010CD010010D7
:1001B000CD010010CD010010CD010010CD010010C7
:1001C00000BE00BE00BE00BE00BE00BEEFF3058054
:1001D000103800BEF2EB8871542400107424001013
:1001E0003402001090A31AE700201F49086006C8D7
:1001F00081F3088810471D48006800282FD10DA4FE
:100200000ECC002902D000F012F8F9E71849194A7B
:10021000002000E001C19142FCD1174988471749ED
:1002200088471749884700BEFDE701C901C29A42C5
:10023000FBD3704774240010C00000206C02002023
:1002400020260010000004200000042020260010BA
:10025000001004200010042000000000704709482E
:1002600001F0BCFD0047000008ED00E0000000D0F8
:100270007002002040060020511C001055030010A1
:10028000491D00105756000006005250ABB3605392
:100290003424001006005250861C0302282400104B
:1002A000060052505422A29D4424001005005250D2
:1002B000DE65F46820260010F8B5C0460448054BFA
:1002C00010B5834203D0044B002B00D0984710BDDB
:1002D0006C0200206C020020000000000648074964
:1002E000091A8910CB0F591810B5491003D0044BC7
:1002F000002B00D0984710BD6C0200206C0200203B
:100300000000000010B5074C2378002B09D1FFF73F
:10031000D5FF054B002B02D0044800E000BF0123AD
:10032000237010BD70030020000000005023001057
:10033000054B10B5002B03D00449054800E000BF71
:10034000FFF7CCFF10BDC046000000007403002082
:1003500050230010E12170B54902254801F0D8F979
:100360000221002000F04AF80221012000F046F8A6
:1003700020211F4A93691942FCD1412313601D4B70
:1003800000255D5F422D2AD02021194A9369194228
:10039000FCD1422320201360202400230D2616497F
:1003A000134A002B0FD1854214D093691C42FCD113
:1003B00010600B7801310D3B584243410878DBB2A5
:1003C0000028EED170BD93691C42F1D093691C42A4
:1003D000F9D1EDE793691C42FCD11660E5E72021D5
:1003E000034A93691942FCD10D231360CCE7C04640
:1003F000004003403C04002050230010094A8300C1
:1004000094464022634410B51C68C0006240C0247A
:1004100014408022520113431C60034B9C466044ED
:10042000416010BD04C0014000400140024B18680B
:100430008007C00F7047C04600C00640F8B5EFF314
:10044000108772B60D4E3368002BFCD0BFF35F8F60
:100450000725CB08C01801230D40AB401D000478D0
:10046000254007D123430370BFF35F8F356087F3C7
:100470001088F8BD100001F06BFCC0462C0100D0C4
:100480000021044B044ABFF35F8F02C39342FAD1A9
:100490007047C046000100D0800100D0044A1078A7
:1004A000431CDBB2172B00D9102313707047C046D2
:1004B000B001002001238340002904D0034A1360C7
:1004C000034A13607047034A1360FBE780E200E0D1
:1004D00000E100E080E100E0024B10309B6880000A
:1004E000C058704700ED00E070B50D00EFF31086C6
:1004F00072B60F4A1368002BFCD0BFF35F8F0D4B11
:1005000010309B6884001B590B4A934203D09D42D4
:1005100001D001F035FC074B9B681D51BFF35F8F85
:10052000BFF35F8F0022024B1A6086F3108870BD04
:10053000240100D000ED00E0CD010010F0B54546EB
:10054000DE4657464E46E0B50D0083B0EFF3108906
:1005500072B6584A1368002BFCD0BFF35F8F564B1E
:100560009A68030010339F00D459544A904694422D
:1005700034D0AC4245D0524EA21B2F2A2ED8012295
:100580008240924651464F4A1268114001915146AD
:100590004D4A1160BFF35F8FEFF305829346002A47
:1005A00035D10123220006219A43936851569D427A
:1005B0000AD16AE04B005B1806219B00F31898688B
:1005C0005956A84228D01A000029F3DA019B002BC3
:1005D00019D052463D4B1A603A4B1A60364B9B6815
:1005E000DC51BFF35F8FBFF35F8F0022314B1A6086
:1005F00089F3108803B03CBC90469946A246AB46AE
:10060000F0BD1400EAE752462F4B1A60E6E793422A
:10061000C7D001F0B5FBC4E7002921DB4A00501820
:10062000800035188046A8689860E879D87106205F
:1006300028569871002826DBAD88F01A6D052D1517
:1006400045444019E0250005400D2D0228439880BF
:1006500052181F4B9200B6181A781970B271B5E78C
:100660005946002917D1002A22D0FF31917119492A
:10067000918017490A789A71174A9B1B5B415A432C
:10068000120D0A70A2E71548E1E713000029C5DA48
:100690005A46002A0CD0124A1249D21A083A50027D
:1006A000400D01439980104952080A43DA808DE7D2
:1006B0004446DEE7240100D000ED00E0CD0100104B
:1006C000B401002000E100E080E100E080E200E011
:1006D0003904002001BDFFFFAAAA000001BD0000EF
:1006E000EE01002000F0FFFF00F8FFFFF0B5EFF390
:1006F000058101240443EFF3108672B6214A136882
:10070000002BFCD0BFF35F8F1F4B204A0500ED1A72
:100710006D416A43120D1E4D8900AF6852B27F5879
:10072000A7421CD00621595691421CD0122159567D
:10073000914222D01E215956914220D02A21595649
:100740000324914210D0134B19781A708171BFF3B2
:100750005F8F00220B4B1A6086F31088F0BDAB68E8
:100760000D4C5C50EFE700246100091989005B180B
:10077000FF21997109499980E5E70124F4E70224F2
:10078000F2E7C046240100D0B4010020AAAA00006C
:1007900000ED00E039040020CD01001001BDFFFF95
:1007A000054B064A1360064A136053609360D3609A
:1007B00013615361936170478080808000E400E0A2
:1007C00004E400E0024B9C466144890001607047EC
:1007D0004000003410B50400FFF760FE0100200067
:1007E000FFF7F0FFFF232371BFF35F8F10BDC046FB
:1007F00010B50400FFF752FE01002000FFF7E2FFF2
:10080000FF23A380BFF35F8F10BDC04670B5060005
:100810000D00140000291ED0002A1ED073688068C5
:10082000984763006A001B195219033B033A316869
:10083000002808D0CB188A189D70117800290ED195
:100840001470280008E08A18CB18947019780029D1
:1008500000D051701D70200070BD0800FCE7597079
:1008600028001470F8E7C04683680B4810B584462A
:1008700061446244090112019A18591854684B687E
:1008800001209C4201D802D00020C0B210BD1268E5
:100890000B689A42F9D8F7E7FFFFFF0F0A4B196878
:1008A000EFF3108072B60A68002AFCD0BFF35F8FA6
:1008B0001B68BFF35F8F00221A6080F3108840BF6F
:1008C000002000217047C04624040020F8B54746A8
:1008D000CE4680B514001D000BAA0AAB12781B7817
:1008E000804691460768002B12D1BE7B002E44D073
:1008F000720092193968033A891848783300B8733E
:10090000002800D1F873002088704870087003E058
:100910001E005A00D218033A1A4938008C46414644
:10092000896863448C461B0108996344996009995E
:100930001C605D60D9603B689C46002362449370F4
:1009400053701370797B3200FFF760FF7873B04209
:1009500013D143462200187D2B0000F01DFB041E1E
:1009600007D04B46002B04D143463100186800F0F5
:1009700091FE0C9B002B00D01C7030000CBC9046EC
:100980009946F8BDFFFFFF0FF0B5DE4657464E46CD
:1009900045460023E0B58BB00893684B8200D458DD
:1009A00000239B46099000F075FA6268EFF310850A
:1009B00072B61368002BFCD0BFF35F8F23689C4690
:1009C0005B7B9946002B00D16DE0A2685C4B9046A2
:1009D0004B441B01984443461E685F6832003B004D
:1009E000121A8B41002B00DC67E032003B000998B3
:1009F00000F0D2FA002300229846002306920793C3
:100A000000239A466368BFF35F8F5A461A6085F3E6
:100A100010885346002B08D10028C4D10BB03CBC31
:100A200090469946A246AB46F0BD089B4146180247
:100A30004B461843D047626806000F00EFF310855D
:100A400072B61368002BFCD0BFF35F8F002F52DB10
:100A500033003B4302D02369002B63D12368DA7B48
:100A6000002A07D051008A1819688C46494662440A
:100A7000033A51709A7B002A01D14A469A734A463A
:100A8000DA73E2684B469446013B63441A780132BC
:100A90001A705B4623616368BFF35F8F5A461A6022
:100AA00085F310887FE700230022984600230692F2
:100AB0000793002300209A46A4E7002B02D1002AC6
:100AC00000D092E70021604600F002FD43461A681C
:100AD0005B680692079343469B689A464346DB68E9
:100AE0009846E3684B44013B1B7808931B02034381
:100AF0002361002086E72369002BAFD0069A079B6D
:100B0000921BBB41002B15DB594604910121039137
:100B10004946029141460191514620000091FFF75C
:100B2000D5FEB6E700F0B6F932003B0012184B4193
:100B3000002BE9DA0122034B5242E5E710040020C2
:100B4000FFFFFF0FFFFFFF7F10B5144C6368002B02
:100B500004D00A211248FFF735FE10BD2300114AC8
:100B60001021206800F0D2FA032000F087F903205A
:100B700000F07EFA0C49032000F0C8F9FFF78EFC64
:100B80000A4B9C4603232375D0231B061B68604435
:100B90006375074B80006060DC60DAE7FC010020D1
:100BA0002404002069080010890900104000003466
:100BB00010040020F0B54E4657464546DE46E0B5E7
:100BC00083B0009201930EAB1B7807009946002377
:100BD000002698467A68EFF3108A72B61368002BE5
:100BE000FCD0BFF35F8F3D68AC7B002C00D168E088
:100BF00063001B192A68033BD2185178A346A973D6
:100C0000002900D1E973967056701670B968384A99
:100C10008C4600980199A21812016244106051603C
:100C20000C99280091600D99D1602A68944663441C
:100C30009E705E701E70697B2200FFF7E7FD68738F
:100C4000844244D0FB681B19013B18787B68BFF3D2
:100C50005F8F1E608AF31088002C45D04346002B1E
:100C600009D15B460002184303B03CBC904699464C
:100C7000A246AB46F0BD4B46002B26D00C9B0D99EF
:100C80000020984703000B431FD004000D1E09DA13
:100C9000009A019B121BAB4100920193002B09DBD0
:100CA000C84697E700F0F6F824184D4100940195E6
:100CB000002DF5DA01230F4C5B4200930194C846E6
:100CC00088E7002300209B46C0E70020CCE7387D62
:100CD000009A019B00F060F980460028B2D0210004
:100CE000386800F0D7FCADE701204042BCE7C046C1
:100CF000FFFFFF0FFFFFFF7FF0B5EFF30583CE4649
:100D0000474680B5050085B00C00002B11D02B4A5A
:100D10000020536AA34207D3926A0130AA4203D249
:100D20001C1B601E8441E0B205B00CBC9046994685
:100D3000F0BD234E02930193224B0200009330003A
:100D40000B00FFF737FF0028E1DD20BF7268EFF3EB
:100D5000108772B61368002BFCD0BFF35F8F336827
:100D6000C1B29C466246FF23527B03408A420BD0AD
:100D70005A00914662461268994490464A46424457
:100D8000033A9278002A10D0F268000A9046434451
:100D9000013B1A78C0B282420CD07368BFF35F8FF8
:100DA00000221A6087F31088B1E733699842F4D1C2
:100DB0003261F2E7604600F06DFCEEE7004005406E
:100DC000FC0100209D080010F8B5EFF30582CE4627
:100DD0004746100080B51038EFF3108C72B6204CE7
:100DE0002368002BFCD0BFF35F8F012319008140E3
:100DF0001C4D1D4E716329601C4DA9462D782F0096
:100E0000C7403B4015D0736A194E984683009E59DF
:100E1000B04517D3174A8D439B584A461570BFF308
:100E20005F8F002222608CF31088002B06D0984739
:100E300004E0BFF35F8F23608CF310880CBC9046F6
:100E40009946F8BD0C4B92009846424413681360D3
:100E5000BFF35F8F002323608CF31088EEE7C0465A
:100E6000280100D03C700540004005403A040020B5
:100E7000280400208C030020D03F054010B501005D
:100E8000024A0348FFF7DAFA10BDC046602300109B
:100E900038040020044A516A00E01900906A536A3D
:100EA0009942FAD17047C04600400540164A70B5D5
:100EB000546A00E01C00956A536AA342FAD12A00E2
:100EC00023008018594105000E008C4202D819D128
:100ED000824217D9012201256D42EE1752420A4C77
:100EE000636A9342FCD39A420BD1074B2800996A5C
:100EF000A94203D305E0996A814202D2596A91421C
:100F0000F9D070BD3200EAE70040054070B504003A
:100F10000D00EFF3108672B61A4A1368002BFCD04E
:100F2000BFF35F8F002D1BD02000FFF7D5FA1649C5
:100F300088420AD02000FFF7D7FA01212000FFF7EE
:100F4000B9FA0123A340114A1360114BA400E550E4
:100F5000BFF35F8F00220B4B1A6086F3108870BDC1
:100F60000B4BA200D5500122A2400A4920000B7869
:100F700093430B700449FFF7E1FA00212000FFF7CB
:100F800099FAE5E7280100D0C90D00103860054046
:100F90008C0300203A040020F0B5D6464F46464662
:100FA0002E4CC0B5656A00E00D00A66A616AA942D0
:100FB000FAD1AB4209D806D0012420001CBC9046CF
:100FC0009946A246F0BDB242F6D9EFF3108972B647
:100FD000234C21680029FCD0BFF35F8F01262149F3
:100FE00086408C460978204D0F0037438846F9B279
:100FF0008A46614654460C701849041DA4004E638D
:101000006250840063510D6A002435421AD04D6A43
:1010100000E025008F6A4C6AAC42FAD1AB4219D885
:1010200001D1BA4216D8C24516D00C4B0F4A1E62E7
:101030005E631F2318401E3B834013606346424695
:1010400001241A70BFF35F8F0022054B1A6089F3E9
:101050001088B2E70024F5E70124F3E700400540DB
:10106000280100D03A0400202804002080E200E09B
:1010700010B5EFF3108472B60A490B68002BFCD050
:10108000BFF35F8F01238340074A08481362027849
:101090009A430270BFF35F8F00230B6084F31088C4
:1010A00010BDC046280100D0004005403A04002091
:1010B00070B506000D00140000291ED0002A1ED0B5
:1010C00073688068984763006A001B195219033BD4
:1010D000033A3168002808D0CB188A189D7011781F
:1010E00000290ED11470280008E08A18CB189470DB
:1010F0001978002900D051701D70200070BD0800C3
:10110000FCE7597028001470F8E7C046F0B5DE46D9
:1011100057464E464546E0B58360002389B042609D
:10112000026806914373C9B2013305910173837359
:10113000C1730492012900D8A4E00A004B1ED9B261
:10114000931E0791072B00D8AEE00025CB08039330
:10115000049B564C591C564B56489B46564B9A4638
:10116000564B9C46564B0293524663465F465E463C
:1011700062401A40504B2740FB185A4006405346E5
:1011800001966646434033404B4E0A70B046019E7E
:101190000135B146C844464673401604360ECE703B
:1011A0001602120E4A721A04120E0B73CA731A0236
:1011B0001B0E4B75029B360E5C4063461C40404B39
:1011C000120E9846029B47445840634618404B46CF
:1011D00043445840039BEDB28E718A747C401831B1
:1011E000AB42C1D1079907230A009A43531CDBB2D3
:1011F000914247D0049C5A00A446D218591C62441C
:10120000059DC9B2033A51708D423BD94A0052182C
:10121000981C6244C0B2033A5070854232D94200F1
:101220001218D91C6244C9B2033A51708D4229D9AF
:101230004A005218181D6244C0B2033A50708542E9
:1012400020D942001218591D6244C9B2033A5170A4
:101250008D4217D94A005218981D6244C0B2033A11
:10126000507085420ED942001218D91D6244C9B28D
:10127000033A51708D4205D94A0052186244033A2C
:1012800008335370FF23069A13405900C918049B72
:101290009C460023614403394B7009B03CBC904626
:1012A0009946A246AB46F0BD0123A3E70102030421
:1012B0007F7F7F7F05060708010101018080808014
:1012C0000808080870B50400002907D04B00006822
:1012D0005B18033BC3185A78002A01D1080070BD7F
:1012E0005500AD18033D40190025467845705D70E6
:1012F0002000FFF7DDFE310005002000FFF7E2FFD0
:10130000290002002000FFF7D3FE0100E6E7C046F7
:10131000F0B54E464546DE465746E0B50E00740031
:101320000168A41985B0033C01920A1905001078E0
:10133000002850D043001B18033BCB185F78BC46F5
:10134000002F1AD1019C002C42D0EC7B002C04D041
:1013500063001B19CB18033B5E70AB7B002B00D1E5
:10136000AE73EE7300282FD10023537005B03CBC40
:1013700090469946A246AB46F0BD7A006244033AD5
:1013800089184A78934600224A7090465A700100A4
:101390003A002800FFF78CFE5B468146002B07D001
:1013A0005B0029685B44033BCB185A78002A16D1AE
:1013B0005A4649462800FFF77BFE2968019B0A1917
:1013C000002BC2D10028CFD043001B18033BCB1801
:1013D00000219970C8E7019B002BB6D1C4E75000EB
:1013E000801803380918487882464046487058707B
:1013F00059462800FFF75CFE53468346002B07D072
:101400005B0029685344033BCB185A78002A06D165
:10141000594652462800FFF74BFE8346C8E7500066
:1014200080180338091840464F7848705870514664
:1014300028000297FFF73CFE8246002F08D0BC46EA
:101440007B0029686344033BCB185A78002A06D1F5
:101450005146029A2800FFF72BFE8246D8E750003B
:1014600080180338091840464F7848705870029920
:1014700028000397FFF71CFE8046002F08D0BC46CB
:101480007B0029686344033BCB185A78002A06D1B5
:10149000039A41462800FFF70BFE0290D8E703208D
:1014A00050430338091800204F784870587003994A
:1014B0002800FFF7FDFD390002902800FFF702FF2A
:1014C000029902002800FFF7F3FD0390E0E7C04611
:1014D000F0B54E464546DE465746E0B5467B04002D
:1014E00075000068AD19033D85B04219019111786E
:1014F000002952D04B005B18033BC3185F78BC46F1
:10150000002F1CD1019D002D44D0E57B002D04D07F
:101510006B005B19C318033B5E70A37B002B00D1EB
:10152000A673E673002931D1002330005370617334
:1015300005B03CBC90469946A246AB46F0BD7A0049
:101540006244033A801842789346002242709046E3
:101550005A7020003A00FFF7ABFD5B468146002B36
:1015600007D05B0021685B44033BCB185A78002A04
:1015700017D15A4649462000FFF79AFD019B01000A
:1015800020684219002BC0D10029CDD04B005B1838
:10159000033BC31800209870C6E7019B002BB4D111
:1015A000C2E7500080180338091848788246404640
:1015B0004870587059462000FFF77AFD534683461D
:1015C000002B07D05B0021685344033BCB185A78AB
:1015D000002A06D1594652462000FFF769FD83468E
:1015E000C7E7500080180338091840464F78487004
:1015F0005870514620000297FFF75AFD8246002F8F
:1016000008D0BC467B0021686344033BCB185A7862
:10161000002A06D15146029A2000FFF749FD824672
:10162000D8E7500080180338091840464F784870B2
:101630005870029920000397FFF73AFD8046002F6B
:1016400008D0BC467B0021686344033BCB185A7822
:10165000002A06D1039A41462000FFF729FD029097
:10166000D8E7032050430338091800204F7848700A
:10167000587003992000FFF71BFD390002902000ED
:10168000FFF720FE029902002000FFF711FD0390F2
:10169000E0E7C04670B5040000292CD0437B8B42A4
:1016A0002ED0056848004018033828188278002A90
:1016B00021D053009B18033BEB181A788A4202D1C1
:1016C0001BE0002A08D053009B18033BEB185A7804
:1016D0008A42F6D142785A70002301228370437007
:1016E0002000FFF715FE617B02002000FFF7E0FC01
:1016F0006073012000E0002070BD42781A70EBE7B3
:1017000001221900FFF704FE60730120F4E7C046D0
:10171000F8B5CE464746040080B506200D0000F01F
:1017200025FA061E52D0524B5249E3185A425341F1
:101730008022D20394465B4213404F4A63441360B5
:101740004E4A136018008A689043FBD1484B8021B1
:10175000E3185A4253414A4A5B0049000620995215
:1017600000F004FA2900C00000F066FBC30932D182
:10177000402290463F3A6262A362266BF30736D45A
:1017800027008025E36A00232C376D013D432B6041
:101790000620266300F0EAF94146800000F04CFB89
:1017A000236B06009846DB073BD46022E36A5A406D
:1017B0006E2313402B6043462363802310229B013A
:1017C0003B431A602F4B23630323A36430000CBCFC
:1017D00090469946F8BD2C4A93423FD900232B4AA4
:1017E00090462B4A6262A362266BF307C8D522009B
:1017F000C02330329B011343224A06201A60656AD7
:10180000A36AAD01ED1800F0B1F9224900F014FB14
:10181000AD020100280000F00FFB0021FFF746FB9E
:10182000AEE72200C02330329B011343154A062045
:101830001A60636AA26A9B019946914400F096F986
:101840004B4614499B02994600F0F6FA01004846BF
:1018500000F0F2FA0021FFF729FBA6E77F221040F3
:101860009A019046013040081A008044030082E744
:101870000080FCBF00C0004000E0004000F00040DD
:101880003C04002001030000FEFF0000C0FF3F00F9
:10189000FFFF00004E0E000030B50C2083B000F0BA
:1018A000BBF9FEF7C3FD00280ED0994B994A1A6088
:1018B0005A609A60DA601A615A619A61DA611A6252
:1018C000954A5A6203B030BD944CA06700F0ACF961
:1018D0000122934B1A60636C012BFCD10322914BC4
:1018E0001A608E4A936B012BFCD1013300938E4A10
:1018F000043301218D4800F03FF905238C4A009301
:1019000001218C4800F038F98B4B5A68FF2A02D825
:10191000802252005A6080227D4C824B2169120144
:10192000854D1A60002907D0606900F085FA431CD4
:101930005800C0180338FDD2E0217F4B02201A68FE
:101940001140802252012A43116019684840032146
:101950000140116004219A681142FCD0802280214C
:1019600092012A4309011160802252005A60734B90
:101970002361734B5968FF2900D85A6003227048CD
:10198000674B01211A60020093681942FCD0E025E0
:1019900013681D4080235B0103431D6012684A40A9
:1019A0000321114019600221654A93681942FCD055
:1019B000802380219B010343090119608021614B31
:1019C000490051606361604B5A68FF2A00D8596032
:1019D00080225E4BE16912015B4D1A60002907D03D
:1019E000606900F029FA431C5800C0180338FDD282
:1019F000E02255490B681A4080235B012B431A6093
:101A0000802380229B012B4312011A608022414BCC
:101A100052004A60E3614E4B5968FF2900D85A6072
:101A200080224C4B216A1201494D1A60002907D0CF
:101A3000606900F001FA431C5800C0180338FDD259
:101A4000E02243490B681A4080235B012B431A6054
:101A5000802380229B012B4312011A6080235B00AC
:101A60004B602C4B3C4A23623C4B5968914201D855
:101A700001325A6080223A4B616A1201374D1A6076
:101A8000002907D0606900F0D7F9431C5800C0183E
:101A90000338FDD2E02231490B681A4080235B01F4
:101AA0002B431A60802380229B012B4312011A6072
:101AB0008023DB024B60184B63622A4B5A68FF2A73
:101AC00002D8802252005A608022274BA16912015D
:101AD000244D1A60002907D0606900F0ADF9431C5D
:101AE0005800C0180338FDD2E0221E490B681A4086
:101AF00080235B012B431A60802380229B012B43B0
:101B000012011A6080235B004B600E4BA361D9E683
:101B10009C030020006CDC021BB70000008000402A
:101B20003CB0004030B00040002F685900800240B7
:101B3000008C864700C0024030800040001BB70088
:101B40003C800040405973075480004054B000402E
:101B50006080004060B00040FFFF03006C800040E8
:101B60006CB000404880004048B00040014B80000D
:101B7000C05870479C030020F8B5040021481700A6
:101B80001E000D0000F058F90100380000F054F973
:101B9000069A3304120313432268002A21DB1A4AEF
:101BA0001A4EA21851424A41802149018C465242A4
:101BB0000A40174962440A6016490A601700B16872
:101BC0008F43FBD1C021221D8901114321222560B1
:101BD000A0600A602268002AFCDAE36008230B6038
:101BE000F8BD3F2221680A40AA42D8D1A268120556
:101BF000120D8242D3D1EE21E268C9020A409A4214
:101C0000CDD1EDE7001BB7000040FDBF00C0004094
:101C100000E0004000F000408023024A9B000343A4
:101C2000D362704700800540AA23064A1B01136057
:101C30002F230549D360054B19605368002BFCDA4C
:101C40007047C0460040024000B0FA000060024009
:101C50002D4B2E4A70B51A602D4A2E4B2E491A6014
:101C600010008B689843FBD12C4C2D4B9C4209D221
:101C7000013B1D1BAD080135AD002D1908CC98475F
:101C8000AC42FBD1FFF708FE264A224B1A60224ADB
:101C90009368DB018033FBD14022234B234D244842
:101CA0009A675A671A67DA66A84205D30EE0FEF70C
:101CB0009FFD2000AC4209D2040003680834002BC9
:101CC000F5D1FEF787FD2000AC42F5D3194C1A4D33
:101CD000A168C022280000F09BF9A560FEF7D0FBA8
:101CE000FEF75EFDFEF730FF144C154B9C4209D207
:101CF000013B1D1BAD080135AD002D1908CC9847DF
:101D0000A542FBD170BDC04600E00040BFCDFBFE48
:101D1000FE7F3C0000F0004000C000405802002060
:101D200068020020FFFFFF0100F001405802002080
:101D30005002002000ED00E00000002068020020BA
:101D40006C02002000BEFDE710B5FFF7FBFFC046A8
:101D50000FB400B5084883B000F08CFA049B002B48
:101D600007D005A91800019100F018F8034800F009
:101D700081FA0120FFF7E6FF90230010A023001056
:101D800010B50148FFF7E4FF8423001010B50028C8
:101D900000D110BD00F022FAFBE7C04610B5094A99
:101DA00084B01468002C09D0012200910300524233
:101DB00003A90548A047012004B010BD00F05AFA5D
:101DC0000020F9E70C0400208D1D001001480421BB
:101DD000014B184730020020FD1D0010142310B5E0
:101DE0000100188804331B88984710BD162310B5CE
:101DF0000100188802331B88984710BDF0B5C6460D
:101E000000B5002916D01423040001259846182790
:101E1000890046184346216818883B88984701C4C2
:101E2000431E984140420540A642F3D1280004BC1D
:101E30009046F0BD0125F9E7114A936F9B0813D234
:101E400010665166002905D0FFE7FFE7FFE7516FF5
:101E5000106F704704B5002801D00020C04300F087
:101E600067FA002104BDC046F0B5146E556E576F79
:101E7000166FFFF7E5FF1466556657671667F0BDE6
:101E8000000000D0132370B51D78012D15D010DD92
:101E90002648FFF7ABFF264C01008022200000F00F
:101EA000B7F8022D06D02348FFF798FF224B1860A1
:101EB00070BD1F4C214AA264F5E71D4C1F4AA308C0
:101EC0005B421D402FD02B0022602020A90061180A
:101ED000451B0A604A608A60CA600A614A618A6179
:101EE000CA610A624A628A62CA620A634A638A6390
:101EF000CA630A644A648A64CA640A654A658A6570
:101F0000CA650A664A668A66CA660A674A676D08CB
:101F1000102D03D18A67CA67A264C4E71E339B00F1
:101F2000E250A264BFE70023CFE7C046534400005D
:101F3000400400204C33000020040020411F00100A
:101F400007B5604601880A0A0230DF2AFAD1C9B211
:101F5000820804D3028840880004104300E000682F
:101F6000014A5050039007BD40040020132310B5D0
:101F70001C781348FFF73AFF012C0BD004DD010059
:101F80008022104800F044F80F48FFF727FF0F4B5E
:101F9000186010BD0B4C01005422200000F038F8EE
:101FA0000B4B6365A365E36523666366A366E3661F
:101FB00023676367A367E3672362E361E4E7C046DF
:101FC00053460000400500204C3300002004002050
:101FD000D51F001007B5604601880A0A0230DF2AC3
:101FE000FAD1C9B2820804D30288408800041043A1
:101FF00000E00068014A5050039007BD40050020F2
:1020000001480421014B184740020020FD1D00102B
:10201000014B5B681847000040020020030010B528
:1020200008001B681100984710BDC046F8B5474628
:10203000CE4680B5437D80460C001500002B43D072
:10204000002A34DD0A78037D00200A2A33D0012DCE
:102050001ED0204B0121671E994602E03100B54297
:1020600016D0635C7A5C4E1C0A2BF7D10D2AF5D092
:1020700043461B68884204DA091A201898474346E9
:102080001B6802214846984730003100B542E8D12C
:10209000854204DD4346291A1B68201898476419B5
:1020A000013C23780D3B5A425341424613750CBC08
:1020B00090469946F8BD002BC9D1434605480221F8
:1020C0001B6898470120C2E7036811002000984769
:1020D000EDE7C04650240010F0B5DE4657464E46A8
:1020E0004546E0B585B017001C0006000D00FEF760
:1020F000D1FE0023324A12184B41002B5BDB3149E1
:102100000800884600F01CF901906B1C03D13000D8
:1021100000F0CEF80500002C28D12B4B9A462B4B13
:102120001C68002C15D0002F23D1294F02E0246910
:10213000002C0ED02368002BF9D03B68002B01D077
:10214000A342F4D120002A003100D0472469002C9A
:10215000F0D1019B002B2AD1681E8541E8B205B061
:102160003CBC90469946A246AB46F0BD194B9A46F8
:10217000D5E7174B9B4602ABDF1D0A23994602E0C9
:102180002469002CE5D02368002BF9D05B461B683E
:10219000002B01D0A342F3D12A0031002000D04708
:1021A0004B460122390020003B70D047E8E740460B
:1021B00000F0B6F8D0E70122074B52429FE7C04635
:1021C00040420F00500200202D2000100404002087
:1021D000080400201D200010FFFFFF7FF0B5CE4651
:1021E000474680B583B06B46DE1D05003070FEF7B4
:1021F00051FE00231A4A12184B41002B2CDB194FB9
:10220000380000F09DF8184B80461C68002C16D052
:10221000164B994602E02469002C10D02368002B4D
:10222000F9D04B461B68002B01D0A342F3D120000C
:1022300001223100FFF7FAFE2469002CEED143465B
:10224000002B05D1280003B00CBC90469946F0BD88
:10225000380000F065F8F5E70122054B5242CEE761
:1022600040420F0050020020040400200804002017
:10227000FFFFFF7F70B5040000F01AF80023010093
:10228000050001222000FFF727FF084B1C68002CE7
:1022900006D06368002B05D098472469002CF8D13C
:1022A000280070BD2469002CF3D1F9E70404002054
:1022B00010B5830727D00378002B26D00300032115
:1022C00002E01A78002A1CD001330B42F9D11968B8
:1022D0000F4A104C8A188A4322420FD104331968DE
:1022E0000B4A8A188A43224208D104331968084AE3
:1022F0008A188A432242F1D000E001331A78002A7A
:10230000FBD1181A10BD0300E1E70020FAE7C04630
:10231000FFFEFEFE80808080F8B5C0460000000011
:1023200001B40248844601BC604700BF710100202F
:1023300001B40248844601BC604700BF99010020F7
:1023400001B40248844601BC604700BFC1000020C0
:102350002048656C6C6F2C2055415254210A0000B6
:10236000486172647761726520616C61726D2025CD
:102370006420616C726561647920636C61696D656C
:1023800064000000486172642061737365727400B8
:102390000A2A2A2A2050414E4943202A2A2A0A0082
:1023A0000A00000006005250BBFF3CB63C2400105F
:1023B000060052509A235618EC2300100600525083
:1023C000E182887FDC23001006005250D3F0754272
:1023D000D423001052656C6561736500626F6F7481
:1023E000325F7732357130383000000068747470B5
:1023F000733A2F2F6769746875622E636F6D2F7241
:10240000617370626572727970692F7069636F2D84
:102410006578616D706C65732F747265652F4845C2
:1024200041442F756172742F68656C6C6F5F7561C4
:1024300072740000312E352E310000007069636F18
:10244000000000004465632032392032303233000E
:042450000D0A000071
:10245400AC020010A002001094020010A42300108B
:1024640088020010B0230010BC230010C823001001
:10247400F0B5C6461F0000B5040016000368EFF36C
:10248400108272B619680029FCD0BFF35F8F042351
:10249400E356002B36DB2168BFF35F8F0020086012
:1024A40082F31088D0220025120655579D4203D18D
:1024B400002004BC9046F0BD002398460CE022683E
:1024C400BFF35F8F4146116083F3108830003900F9
:1024D40000F03EF80028EBD12268EFF3108372B6C7
:1024E40011680029FCD0BFF35F8F22797F2AE6D9D7
:1024F40025712268BFF35F8F0021116083F3108878
:102504000120D6E7D0231B061B6823712368BFF381
:102514005F8F0021196082F310880120C9E7C0464B
:102524000268EFF3108172B61368002BFCD0BFF37E
:102534005F8FFF2303710368BFF35F8F00221A606C
:1025440081F3108840BF70477047C0460000000008
:1025540001B40248844601BC604700BFF90C001076
:102564001000000000000000000001000000000056
:102574000000000000000200000000000000000055
:102584000000030000000000000000000000FF0045
:102594000000000001B5486801318E4600477046CE
:1025A40009380149884701BDED06001014020020D6
:1025B4000000000070020020C4030020000000009E
:1025C40000000000D4030020000000000000000010
:1025D40010000000000000000000000000000000E7
:1025E400503300004C3300005433000052330000D9
:1025F4004D5300004D4300005334000043340000A9
:10260400000000000000000001200010CD1D00109B
:0C261400851E00106D1F00103103001027
:04000005100001E9FD
:00000001FF
